:040000000BEF00F012
:100008004082FACF22F0FBCF23F096ED24F088EF60
:0200180027F0CF
:100600000001000A006400E8031027004843004886
:100610004300C8432F654200C84200803F72313F0B
:10062000FE753E58633D951D3CC5AE3A792139941F
:10063000803793A73556153400000000803FF0FF47
:10064000BEE2A93E8376BEAE2B3E3CC3BDD2133D77
:1006500078D3BB3C04429F6A429001424DBB40ECC0
:10066000473E8E1FBB3C04425A8B420444429C4F7F
:100670004100803F55B53F10494040256320253358
:10068000642025336420253364202533642400400E
:1006900025632025336420253364202533642024FA
:1006A0000000170EF66E060EF76E0900F5CF6FF01C
:1006B0000900F5CF70F00A00F5CF71F066C168F05F
:1006C00067C169F066EC27F068C06CF069C06DF036
:1006D0006AC06EF08EEC1EF06CC07BF06DC07CF0DA
:1006E0006EC07DF0000E00017E6F7F0E00017F6FF7
:1006F000430E0001806FE5EC1FF07BC08AF17CC0E7
:100700008BF17DC08CF1000E0101A26F000E010182
:10071000A36F000E0101A46F01016A5101016B1169
:10072000D8B406D00101665101016711D8A428D0C0
:10073000000E3A6E050E3A6401D010D03A500A0D00
:10074000060EF326000EF422000EF324D96E010EDD
:10075000F420DA6E000EDF6E3A2AECD7000E0001AC
:10076000706F010E6F6F000E0001726F200E716FBF
:10077000000E0001746F010E736FBEEC22F01200C8
:10078000FE0E01016A1904E101016B29D8B407D0FA
:10079000020E01016A1901016B11D8A4C8D3FE0E23
:1007A00001016A192DE101016B29D8A429D0000E9D
:1007B0003A6E020E3A6401D01FD03A500A0D060E6E
:1007C000F326000EF422000EF324D96E010EF4205D
:1007D000DA6EFF0EDF6E3A2AECD73A500A0D060E9B
:1007E000F326000EF422000EF324D96E010EF4203D
:1007F000DA6E010EDF6E3A2A050E3A64EED728D083
:10080000000E3A6E020E3A6401D01FD03A500A0D23
:10081000060EF326000EF422000EF324D96E010E0C
:10082000F420DA6E010EDF6E3A2AECD73A500A0D48
:10083000060EF326000EF422000EF324D96E010EEC
:10084000F420DA6EFF0EDF6E3A2A050E3A64EED718
:10085000740EF66E060EF76E0900F5CF6CF0090007
:10086000F5CF6DF00A00F5CF6EF0000E00016F6F4E
:10087000340E0001706F420E0001716F8EEC1EF09D
:100880006CC007F16DC008F16EC009F1740EF66E10
:10089000060EF76E0900F5CF6CF00900F5CF6DF08C
:1008A0000A00F5CF6EF0000E00016F6F070E000119
:1008B000706F430E0001716F8EEC1EF06CC01BF167
:1008C0006DC01CF16EC01DF1740EF66E060EF76E53
:1008D0000900F5CF6CF00900F5CF6DF00A00F5CFF7
:1008E0006EF0000E00016F6F340E0001706F420E4B
:1008F0000001716F8EEC1EF06CC025F16DC026F109
:100900006EC027F1740EF66E060EF76E0900F5CF75
:100910006CF00900F5CF6DF00A00F5CF6EF0000E17
:1009200000016F6F070E0001706F430E0001716FC1
:100930008EEC1EF06CC039F16DC03AF16EC03BF127
:10094000000E00017E6F000E00017F6F400E00015F
:10095000806F110EF66E060EF76E0900F5CF7BF074
:100960000900F5CF7CF00A00F5CF7DF0E5EC1FF033
:100970007BC0A5F17CC0A6F17DC0A7F1000E0001EF
:10098000B66F000E0001B76F400E0001B86FA5C131
:10099000B3F0A6C1B4F0A7C1B5F0B4EC1DF0B3C07C
:1009A000B4F1B4C0B5F1B5C0B6F1000E0001B66F38
:1009B000000E0001B76F400E0001B86F0B0EF66E0F
:1009C000060EF76E0900F5CFB3F00900F5CFB4F0CD
:1009D0000A00F5CFB5F0B4EC1DF0B3C0B7F1B4C068
:1009E000B8F1B5C0B9F1B4C18AF0B5C18BF0B6C1E8
:1009F0008CF0B7C18DF0B8C18EF0B9C18FF08BEC1F
:100A000019F08AC0BAF18BC0BBF18CC0BCF1BAC17D
:100A1000C4F0BBC1C5F0BCC1C6F0D5EC1CF0C4C06D
:100A200090F1C5C091F1C6C092F1110EF66E060E9E
:100A3000F76E0900F5CF7BF00900F5CF7CF00A00D6
:100A4000F5CF7DF0000E00017E6F000E00017F6F7C
:100A5000400E0001806FE5EC1FF07BC093F17CC07D
:100A600094F17DC095F1000E00017E6F000E000133
:100A70007F6F400E0001806F110EF66E060EF76E4E
:100A80000900F5CF7BF00900F5CF7CF00A00F5CF27
:100A90007DF0E5EC1FF07BC0A5F17CC0A6F17DC028
:100AA000A7F1000E0001B66F000E0001B76F400EF7
:100AB0000001B86FA5C1B3F0A6C1B4F0A7C1B5F0ED
:100AC000B4EC1DF0B3C0B4F1B4C0B5F1B5C0B6F12B
:100AD000000E0001B66F000E0001B76F400E00015E
:100AE000B86F0E0EF66E060EF76E0900F5CFB3F076
:100AF0000900F5CFB4F00A00F5CFB5F0B4EC1DF065
:100B0000B3C0B7F1B4C0B8F1B5C0B9F1B4C18AF09F
:100B1000B5C18BF0B6C18CF0B7C18DF0B8C18EF005
:100B2000B9C18FF08BEC19F08AC0BAF18BC0BBF160
:100B30008CC0BCF1BAC1C4F0BBC1C5F0BCC1C6F029
:100B4000D5EC1CF0C4C096F1C5C097F1C6C098F1B1
:100B5000000E00017E6F000E00017F6F400E00014D
:100B6000806F110EF66E060EF76E0900F5CF7BF062
:100B70000900F5CF7CF00A00F5CF7DF0E5EC1FF021
:100B80007BC0A5F17CC0A6F17DC0A7F1000E0001DD
:100B9000B66F000E0001B76F400E0001B86FA5C11F
:100BA000B3F0A6C1B4F0A7C1B5F0B4EC1DF0B3C06A
:100BB000B4F1B4C0B5F1B5C0B6F1000E0001B66F26
:100BC000000E0001B76F400E0001B86F0E0EF66EFA
:100BD000060EF76E0900F5CFB3F00900F5CFB4F0BB
:100BE0000A00F5CFB5F0B4EC1DF0B3C0B7F1B4C056
:100BF000B8F1B5C0B9F1B4C18AF0B5C18BF0B6C1D6
:100C00008CF0B7C18DF0B8C18EF0B9C18FF08BEC0C
:100C100019F08AC0BAF18BC0BBF18CC0BCF1BAC16B
:100C2000C4F0BBC1C5F0BCC1C6F0D5EC1CF0C4C05B
:100C300099F1C5C09AF1C6C09BF1110EF66E060E71
:100C4000F76E0900F5CF7BF00900F5CF7CF00A00C4
:100C5000F5CF7DF0000E00017E6F000E00017F6F6A
:100C6000400E0001806FE5EC1FF07BC09CF17CC062
:100C70009DF17DC09EF1000E00017E6F000E00010F
:100C80007F6F400E0001806F110EF66E060EF76E3C
:100C90000900F5CF7BF00900F5CF7CF00A00F5CF15
:100CA0007DF0E5EC1FF07BC0A5F17CC0A6F17DC016
:100CB000A7F1000E0001B66F000E0001B76F400EE5
:100CC0000001B86FA5C1B3F0A6C1B4F0A7C1B5F0DB
:100CD000B4EC1DF0B3C0B4F1B4C0B5F1B5C0B6F119
:100CE000000E0001B66F000E0001B76F400E00014C
:100CF000B86F0B0EF66E060EF76E0900F5CFB3F067
:100D00000900F5CFB4F00A00F5CFB5F0B4EC1DF052
:100D1000B3C0B7F1B4C0B8F1B5C0B9F1B4C18AF08D
:100D2000B5C18BF0B6C18CF0B7C18DF0B8C18EF0F3
:100D3000B9C18FF08BEC19F08AC0BAF18BC0BBF14E
:100D40008CC0BCF1BAC1C4F0BBC1C5F0BCC1C6F017
:100D5000D5EC1CF0C4C09FF1C5C0A0F1C6C0A1F184
:100D6000000E3A6E050E3A6401D0A2D0770EF66EF0
:100D7000060EF76E0900F5CF6FF00900F5CF70F0A1
:100D80000A00F5CF71F03A50030D900EF324D96E9E
:100D9000010EF420DA6EDECF6CF0DECF6DF0DDCF29
:100DA0006EF08EEC1EF06CC06CF16DC06DF16EC01B
:100DB0006EF1000E00016F6F000E0001706F400EAB
:100DC0000001716F6CC16CF06DC16DF06EC16EF0A1
:100DD0008EEC1EF06CC06FF16DC070F16EC071F1E1
:100DE000000E00017E6FB40E00017F6F430E000104
:100DF000806F68C168F069C169F066EC27F068C06F
:100E00007BF069C07CF06AC07DF0E5EC1FF07BC030
:100E10006CF07CC06DF07DC06EF06FC16FF070C182
:100E200070F071C171F08EEC1EF03A500A0D030E95
:100E3000F326000EF422000EF324D96E010EF420E6
:100E4000DA6E6CC0DEFF6DC0DEFF6EC0DEFFA2C1D9
:100E500099F0A3C19AF0A4C19BF03A500A0D030E79
:100E6000F326000EF422000EF324D96E010EF420B6
:100E7000DA6EDECF9CF0DECF9DF0DDCF9EF032EC5F
:100E800024F00001D8B012D03A500A0D030EF32618
:100E9000000EF422000EF324D96E010EF420DA6E57
:100EA000DECFA2F1DECFA3F1DDCFA4F13A2A5AD7EB
:100EB000000E3A6E050E3A6402D069EF14F08AC152
:100EC0006FF08BC170F08CC171F03A500A0D030EB7
:100ED000F326000EF422000EF324D96E010EF42046
:100EE000DA6EDECF6CF0DECF6DF0DDCF6EF08EEC23
:100EF0001EF06CC07BF06DC07CF06EC07DF0A2C1B6
:100F00007EF0A3C17FF0A4C180F0E5EC1FF03A5061
:100F10000A0D000EF324D96E010EF420DA6E7BC0A8
:100F2000DEFF7CC0DEFF7DC0DEFF3A2AC3D70101B1
:100F30006A0501016B11D8B407D001016A2903E1E8
:100F400001016B29D8A4DFD0740EF66E060EF76E81
:100F50000900F5CF6CF00900F5CF6DF00A00F5CF70
:100F60006EF0000E00016F6FB40E0001706F420E44
:100F70000001716F8EEC1EF06CC007F16DC008F1BE
:100F80006EC009F1740EF66E060EF76E0900F5CF0D
:100F90006CF00900F5CF6DF00A00F5CF6EF0000E91
:100FA00000016F6FB40E0001706F420E0001716F8F
:100FB0008EEC1EF06CC01BF16DC01CF16EC01DF1FB
:100FC000740EF66E060EF76E0900F5CF6CF0090090
:100FD000F5CF6DF00A00F5CF6EF0000E00016F6FD7
:100FE000B40E0001706F420E0001716F8EEC1EF0A6
:100FF0006CC025F16DC026F16EC027F1740EF66E3F
:10100000060EF76E0900F5CF6CF00900F5CF6DF014
:101010000A00F5CF6EF0000E00016F6FB40E0001F4
:10102000706F420E0001716F8EEC1EF06CC039F1D2
:101030006DC03AF16EC03BF1000E3A6E050E3A6497
:1010400002D069EF14F03A500A0D060EF326000E96
:10105000F422000EF324D96E010EF420DA6E6AC178
:10106000DFFF3A500A0D000EF324D96E010EF42072
:10107000DA6E8AC1DEFF8BC1DEFF8CC1DEFF0101AB
:10108000685101016911D8A413D03A500A0D030E1A
:10109000F326000EF422000EF324D96E010EF42084
:1010A000DA6EFF0EDE6E7F0EDE6E470EDE6E29D02C
:1010B00068C168F069C169F066EC27F068C06CF03F
:1010C00069C06DF06AC06EF0000E00016F6F200EF7
:1010D0000001706F410E0001716F8EEC1EF03A50EE
:1010E0000A0D030EF326000EF422000EF324D96E2F
:1010F000010EF420DA6E6CC0DEFF6DC0DEFF6EC044
:10110000DEFF3A2A9BD7000E0001996F000E000106
:101110009A6F000E00019B6F000E00017E6F000EA3
:1011200000017F6F400E0001806F110EF66E060EFB
:10113000F76E0900F5CF7BF00900F5CF7CF00A00CF
:10114000F5CF7DF0E5EC1FF07BC08DF07CC08EF01C
:101150007DC08FF0000E00016F6F200E0001706FD8
:10116000410E0001716F6AC168F06BC169F066ECF5
:1011700027F068C06CF069C06DF06AC06EF08EEC4C
:101180001EF06CC08AF06DC08BF06EC08CF08BECE2
:1011900019F08AC09CF08BC09DF08CC09EF032ECA0
:1011A00024F00001D8A04CD0000E00017E6F000E8C
:1011B00000017F6F400E0001806F110EF66E060E6B
:1011C000F76E0900F5CF7BF00900F5CF7CF00A003F
:1011D000F5CF7DF0E5EC1FF07BC08DF07CC08EF08C
:1011E0007DC08FF0000E00016F6F200E0001706F48
:1011F000410E0001716F6AC168F06BC169F066EC65
:1012000027F068C06CF069C06DF06AC06EF08EECBB
:101210001EF06CC08AF06DC08BF06EC08CF08BEC51
:1012200019F08AC096F08BC097F08CC098F0F7EC5C
:1012300027F096C072F197C073F198C074F143D053
:10124000000E00016F6F200E0001706F410E000153
:10125000716F6AC168F06BC169F066EC27F068C015
:101260006CF069C06DF06AC06EF08EEC1EF06CC060
:101270008AF06DC08BF06EC08CF0000E00017E6FA6
:10128000000E00017F6F400E0001806F110EF66EA0
:10129000060EF76E0900F5CF7BF00900F5CF7CF064
:1012A0000A00F5CF7DF0E5EC1FF07BC08DF07CC02F
:1012B0008EF07DC08FF08BEC19F08AC072F18BC07C
:1012C00073F18CC074F10B0EF66E060EF76E09000A
:1012D000F5CF7EF00900F5CF7FF00A00F5CF80F062
:1012E00072C17BF073C17CF074C17DF0E5EC1FF03E
:1012F0007BC0A8F17CC0A9F17DC0AAF1A8C1A2F071
:10130000A9C1A3F0AAC1A4F0DCEC1BF0A2C0ABF110
:10131000A3C0ACF1A4C0ADF1000E00018D6F340E7E
:1013200000018E6F430E00018F6F140EF66E060ED5
:10133000F76E0900F5CF6FF00900F5CF70F00A00E5
:10134000F5CF71F0ABC16CF0ACC16DF0ADC16EF01A
:101350008EEC1EF06CC096F06DC097F06EC098F0E9
:10136000F7EC27F096C08AF097C08BF098C08CF00D
:101370008BEC19F08AC0AEF18BC0AFF18CC0B0F12C
:10138000AEC16CF0AFC16DF0B0C16EF0740EF66E10
:10139000060EF76E0900F5CF6FF00900F5CF70F07B
:1013A0000A00F5CF71F08EEC1EF06CC007F16DC035
:1013B00008F16EC009F1000E0001996F000E0001E6
:1013C0009A6F000E00019B6F000E00017E6F000EF1
:1013D00000017F6F400E0001806F110EF66E060E49
:1013E000F76E0900F5CF7BF00900F5CF7CF00A001D
:1013F000F5CF7DF0E5EC1FF07BC08DF07CC08EF06A
:101400007DC08FF0000E00016F6F200E0001706F25
:10141000410E0001716F6AC168F06BC169F066EC42
:1014200027F068C06CF069C06DF06AC06EF08EEC99
:101430001EF06CC08AF06DC08BF06EC08CF08BEC2F
:1014400019F08AC09CF08BC09DF08CC09EF032ECED
:1014500024F00001D8A04CD0000E00017E6F000ED9
:1014600000017F6F400E0001806F110EF66E060EB8
:10147000F76E0900F5CF7BF00900F5CF7CF00A008C
:10148000F5CF7DF0E5EC1FF07BC08DF07CC08EF0D9
:101490007DC08FF0000E00016F6F200E0001706F95
:1014A000410E0001716F6AC168F06BC169F066ECB2
:1014B00027F068C06CF069C06DF06AC06EF08EEC09
:1014C0001EF06CC08AF06DC08BF06EC08CF08BEC9F
:1014D00019F08AC096F08BC097F08CC098F0F7ECAA
:1014E00027F096C075F197C076F198C077F143D098
:1014F000000E00016F6F200E0001706F410E0001A1
:10150000716F6AC168F06BC169F066EC27F068C062
:101510006CF069C06DF06AC06EF08EEC1EF06CC0AD
:101520008AF06DC08BF06EC08CF0000E00017E6FF3
:10153000000E00017F6F400E0001806F110EF66EED
:10154000060EF76E0900F5CF7BF00900F5CF7CF0B1
:101550000A00F5CF7DF0E5EC1FF07BC08DF07CC07C
:101560008EF07DC08FF08BEC19F08AC075F18BC0C6
:1015700076F18CC077F10E0EF66E060EF76E09004E
:10158000F5CF7EF00900F5CF7FF00A00F5CF80F0AF
:1015900075C17BF076C17CF077C17DF0E5EC1FF082
:1015A0007BC0A8F17CC0A9F17DC0AAF1A8C1A2F0BE
:1015B000A9C1A3F0AAC1A4F0DCEC1BF0A2C0ABF15E
:1015C000A3C0ACF1A4C0ADF1140EF66E060EF76E1A
:1015D0000900F5CF6FF00900F5CF70F00A00F5CFE4
:1015E00071F0ABC16CF0ACC16DF0ADC16EF08EECC2
:1015F0001EF06CC0AEF16DC0AFF16EC0B0F1AEC107
:101600006CF0AFC16DF0B0C16EF0740EF66E060EE8
:10161000F76E0900F5CF6FF00900F5CF70F00A0002
:10162000F5CF71F08EEC1EF06CC01BF16DC01CF19B
:101630006EC01DF1000E0001996F000E00019A6F3F
:10164000000E00019B6F000E00017E6F000E000176
:101650007F6F400E0001806F110EF66E060EF76E62
:101660000900F5CF7BF00900F5CF7CF00A00F5CF3B
:101670007DF0E5EC1FF07BC096F07CC097F07DC05C
:1016800098F0F7EC27F096C08DF097C08EF098C0D8
:101690008FF0000E00016F6F200E0001706F410E81
:1016A0000001716F6AC168F06BC169F066EC27F0E8
:1016B00068C06CF069C06DF06AC06EF08EEC1EF010
:1016C0006CC08AF06DC08BF06EC08CF08BEC19F0A2
:1016D0008AC09CF08BC09DF08CC09EF032EC24F050
:1016E0000001D8A05AD0000E00017E6F000E00014C
:1016F0007F6F400E0001806F110EF66E060EF76EC2
:101700000900F5CF7BF00900F5CF7CF00A00F5CF9A
:101710007DF0E5EC1FF07BC096F07CC097F07DC0BB
:1017200098F0F7EC27F096C08DF097C08EF098C037
:101730008FF0000E00016F6F200E0001706F410EE0
:101740000001716F6AC168F06BC169F066EC27F047
:1017500068C06CF069C06DF06AC06EF08EEC1EF06F
:101760006CC08AF06DC08BF06EC08CF08BEC19F001
:101770008AC08DF18BC08EF18CC08FF18DC196F037
:101780008EC197F08FC198F0F7EC27F096C078F1F2
:1017900097C079F198C07AF14BD0000E00016F6FBD
:1017A000200E0001706F410E0001716F6AC168F078
:1017B0006BC169F066EC27F068C06CF069C06DF031
:1017C0006AC06EF08EEC1EF06CC08AF06DC08BF0BB
:1017D0006EC08CF0000E00017E6F000E00017F6F66
:1017E000400E0001806F110EF66E060EF76E0900B6
:1017F000F5CF7BF00900F5CF7CF00A00F5CF7DF046
:10180000E5EC1FF07BC096F07CC097F07DC098F0AF
:10181000F7EC27F096C08DF097C08EF098C08FF04F
:101820008BEC19F08AC078F18BC079F18CC07AF119
:101830000E0EF66E060EF76E0900F5CF7EF009006B
:10184000F5CF7FF00A00F5CF80F078C17BF079C149
:101850007CF07AC17DF0E5EC1FF07BC0A8F17CC084
:10186000A9F17DC0AAF1A8C1A2F0A9C1A3F0AAC1A3
:10187000A4F0DCEC1BF0A2C0ABF1A3C0ACF1A4C09F
:10188000ADF1140EF66E060EF76E0900F5CF6FF08F
:101890000900F5CF70F00A00F5CF71F0ABC16CF024
:1018A000ACC16DF0ADC16EF08EEC1EF06CC0AEF14F
:1018B0006DC0AFF16EC0B0F1AEC16CF0AFC16DF0F4
:1018C000B0C16EF0740EF66E060EF76E0900F5CF1D
:1018D0006FF00900F5CF70F00A00F5CF71F08EECD3
:1018E0001EF06CC025F16DC026F16EC027F1000E10
:1018F0000001996F000E00019A6F000E00019B6FAE
:10190000000E00017E6F000E00017F6F400E00018F
:10191000806F110EF66E060EF76E0900F5CF7BF0A4
:101920000900F5CF7CF00A00F5CF7DF0E5EC1FF063
:101930007BC096F07CC097F07DC098F0F7EC27F064
:1019400096C08DF097C08EF098C08FF0000E000109
:101950006F6F200E0001706F410E0001716F6AC140
:1019600068F06BC169F066EC27F068C06CF069C084
:101970006DF06AC06EF08EEC1EF06CC08AF06DC027
:101980008BF06EC08CF08BEC19F08AC09CF08BC091
:101990009DF08CC09EF032EC24F00001D8A05AD00B
:1019A000000E00017E6F000E00017F6F400E0001EF
:1019B000806F110EF66E060EF76E0900F5CF7BF004
:1019C0000900F5CF7CF00A00F5CF7DF0E5EC1FF0C3
:1019D0007BC096F07CC097F07DC098F0F7EC27F0C4
:1019E00096C08DF097C08EF098C08FF0000E000169
:1019F0006F6F200E0001706F410E0001716F6AC1A0
:101A000068F06BC169F066EC27F068C06CF069C0E3
:101A10006DF06AC06EF08EEC1EF06CC08AF06DC086
:101A20008BF06EC08CF08BEC19F08AC08DF18BC0FE
:101A30008EF18CC08FF18DC196F08EC197F08FC161
:101A400098F0F7EC27F096C07BF197C07CF198C036
:101A50007DF14BD0000E00016F6F200E0001706F02
:101A6000410E0001716F6AC168F06BC169F066ECEC
:101A700027F068C06CF069C06DF06AC06EF08EEC43
:101A80001EF06CC08AF06DC08BF06EC08CF0000E42
:101A900000017E6F000E00017F6F400E0001806F1D
:101AA000110EF66E060EF76E0900F5CF7BF00900F9
:101AB000F5CF7CF00A00F5CF7DF0E5EC1FF07BC0A0
:101AC00096F07CC097F07DC098F0F7EC27F096C0B8
:101AD0008DF097C08EF098C08FF08BEC19F08AC013
:101AE0007BF18BC07CF18CC07DF10B0EF66E060E87
:101AF000F76E0900F5CF7EF00900F5CF7FF00A0000
:101B0000F5CF80F07BC17BF07CC17CF07DC17DF0A6
:101B1000E5EC1FF07BC0A8F17CC0A9F17DC0AAF163
:101B2000A8C1A2F0A9C1A3F0AAC1A4F0DCEC1BF0EB
:101B3000A2C0ABF1A3C0ACF1A4C0ADF1000E000196
:101B40008D6F340E00018E6F430E00018F6F140EE7
:101B5000F66E060EF76E0900F5CF6FF00900F5CFAF
:101B600070F00A00F5CF71F0ABC16CF0ACC16DF054
:101B7000ADC16EF08EEC1EF06CC096F06DC097F0AB
:101B80006EC098F0F7EC27F096C08AF097C08BF003
:101B900098C08CF08BEC19F08AC0AEF18BC0AFF11D
:101BA0008CC0B0F1AEC16CF0AFC16DF0B0C16EF0E1
:101BB000740EF66E060EF76E0900F5CF6FF0090091
:101BC000F5CF70F00A00F5CF71F08EEC1EF06CC00E
:101BD00039F16DC03AF16EC03BF1000E00017E6F2D
:101BE000000E00017F6F400E0001806F110EF66E37
:101BF000060EF76E0900F5CF7BF00900F5CF7CF0FB
:101C00000A00F5CF7DF0E5EC1FF07BC08DF07CC0C5
:101C10008EF07DC08FF0000E00016F6F200E00016E
:101C2000706F410E0001716F6AC168F06BC169F09D
:101C300066EC27F068C06CF069C06DF06AC06EF0A9
:101C40008EEC1EF06CC08AF06DC08BF06EC08CF014
:101C50008BEC19F08AC0B1F18BC0B2F18CC0B3F13A
:101C6000000E0001B66F000E0001B76F400E0001BC
:101C7000B86FB1C1B3F0B2C1B4F0B3C1B5F0B4EC58
:101C80001DF0B3C0B4F1B4C0B5F1B5C0B6F1000EEB
:101C90000001B66F000E0001B76F400E0001B86F73
:101CA0000B0EF66E060EF76E0900F5CFB3F00900C5
:101CB000F5CFB4F00A00F5CFB5F0B4EC1DF0B3C029
:101CC000B7F1B4C0B8F1B5C0B9F1B4C18AF0B5C1CB
:101CD0008BF0B6C18CF0B7C18DF0B8C18EF0B9C130
:101CE0008FF08BEC19F08AC0BAF18BC0BBF18CC0BD
:101CF000BCF1BAC1C4F0BBC1C5F0BCC1C6F0D5ECE3
:101D00001CF0C4C090F1C5C091F1C6C092F1000EA4
:101D10000001996F000E00019A6F000E00019B6F89
:101D2000000E00017E6F000E00017F6F400E00016B
:101D3000806F110EF66E060EF76E0900F5CF7BF080
:101D40000900F5CF7CF00A00F5CF7DF0E5EC1FF03F
:101D50007BC08DF07CC08EF07DC08FF0000E000146
:101D60006F6F200E0001706F410E0001716F6AC12C
:101D700068F06BC169F066EC27F068C06CF069C070
:101D80006DF06AC06EF08EEC1EF06CC08AF06DC013
:101D90008BF06EC08CF08BEC19F08AC09CF08BC07D
:101DA0009DF08CC09EF032EC24F00001D8A04CD005
:101DB000000E00017E6F000E00017F6F400E0001DB
:101DC000806F110EF66E060EF76E0900F5CF7BF0F0
:101DD0000900F5CF7CF00A00F5CF7DF0E5EC1FF0AF
:101DE0007BC08DF07CC08EF07DC08FF0000E0001B6
:101DF0006F6F200E0001706F410E0001716F6AC19C
:101E000068F06BC169F066EC27F068C06CF069C0DF
:101E10006DF06AC06EF08EEC1EF06CC08AF06DC082
:101E20008BF06EC08CF08BEC19F08AC096F08BC0F2
:101E300097F08CC098F0F7EC27F096C07EF197C031
:101E40007FF198C080F143D0000E00016F6F200E2B
:101E50000001706F410E0001716F6AC168F06BC1C3
:101E600069F066EC27F068C06CF069C06DF06AC07C
:101E70006EF08EEC1EF06CC08AF06DC08BF06EC000
:101E80008CF0000E00017E6F000E00017F6F400E8F
:101E90000001806F110EF66E060EF76E0900F5CF89
:101EA0007BF00900F5CF7CF00A00F5CF7DF0E5EC82
:101EB0001FF07BC08DF07CC08EF07DC08FF08BEC6E
:101EC00019F08AC07EF18BC07FF18CC080F17EC199
:101ED00093F17FC194F180C195F1000E00017E6FF6
:101EE000000E00017F6F400E0001806F110EF66E34
:101EF000060EF76E0900F5CF7BF00900F5CF7CF0F8
:101F00000A00F5CF7DF0E5EC1FF07BC08DF07CC0C2
:101F10008EF07DC08FF0000E00016F6F200E00016B
:101F2000706F410E0001716F6AC168F06BC169F09A
:101F300066EC27F068C06CF069C06DF06AC06EF0A6
:101F40008EEC1EF06CC08AF06DC08BF06EC08CF011
:101F50008BEC19F08AC0B1F18BC0B2F18CC0B3F137
:101F6000000E0001B66F000E0001B76F400E0001B9
:101F7000B86FB1C1B3F0B2C1B4F0B3C1B5F0B4EC55
:101F80001DF0B3C0B4F1B4C0B5F1B5C0B6F1000EE8
:101F90000001B66F000E0001B76F400E0001B86F70
:101FA0000E0EF66E060EF76E0900F5CFB3F00900BF
:101FB000F5CFB4F00A00F5CFB5F0B4EC1DF0B3C026
:101FC000B7F1B4C0B8F1B5C0B9F1B4C18AF0B5C1C8
:101FD0008BF0B6C18CF0B7C18DF0B8C18EF0B9C12D
:101FE0008FF08BEC19F08AC0BAF18BC0BBF18CC0BA
:101FF000BCF1BAC1C4F0BBC1C5F0BCC1C6F0D5ECE0
:102000001CF0C4C096F1C5C097F1C6C098F1000E8F
:1020100000017E6F000E00017F6F400E0001806F97
:10202000110EF66E060EF76E0900F5CF7BF0090073
:10203000F5CF7CF00A00F5CF7DF0E5EC1FF07BC01A
:1020400096F07CC097F07DC098F0F7EC27F096C032
:102050008DF097C08EF098C08FF0000E00016F6F6A
:10206000200E0001706F410E0001716F6AC168F0AF
:102070006BC169F066EC27F068C06CF069C06DF068
:102080006AC06EF08EEC1EF06CC08AF06DC08BF0F2
:102090006EC08CF08BEC19F08AC0B1F18BC0B2F13C
:1020A0008CC0B3F1000E0001B66F000E0001B76FD7
:1020B000400E0001B86FB1C1B3F0B2C1B4F0B3C10A
:1020C000B5F0B4EC1DF0B3C0B4F1B4C0B5F1B5C017
:1020D000B6F1000E0001B66F000E0001B76F400EA2
:1020E0000001B86F0E0EF66E060EF76E0900F5CF02
:1020F000B3F00900F5CFB4F00A00F5CFB5F0B4ECB9
:102100001DF0B3C0B7F1B4C0B8F1B5C0B9F1B4C1F6
:102110008AF0B5C18BF0B6C18CF0B7C18DF0B8C1F3
:102120008EF0B9C18FF08BEC19F08AC0BAF18BC078
:10213000BBF18CC0BCF1BAC1C4F0BBC1C5F0BCC11D
:10214000C6F0D5EC1CF0C4C099F1C5C09AF1C6C068
:102150009BF1000E0001996F000E00019A6F000EB6
:1021600000019B6F000E00017E6F000E00017F6F6B
:10217000400E0001806F110EF66E060EF76E09001C
:10218000F5CF7BF00900F5CF7CF00A00F5CF7DF0AC
:10219000E5EC1FF07BC096F07CC097F07DC098F016
:1021A000F7EC27F096C08DF097C08EF098C08FF0B6
:1021B000000E00016F6F200E0001706F410E0001D4
:1021C000716F6AC168F06BC169F066EC27F068C096
:1021D0006CF069C06DF06AC06EF08EEC1EF06CC0E1
:1021E0008AF06DC08BF06EC08CF08BEC19F08AC059
:1021F0009CF08BC09DF08CC09EF032EC24F000016E
:10220000D8A05AD0000E00017E6F000E00017F6F33
:10221000400E0001806F110EF66E060EF76E09007B
:10222000F5CF7BF00900F5CF7CF00A00F5CF7DF00B
:10223000E5EC1FF07BC096F07CC097F07DC098F075
:10224000F7EC27F096C08DF097C08EF098C08FF015
:10225000000E00016F6F200E0001706F410E000133
:10226000716F6AC168F06BC169F066EC27F068C0F5
:102270006CF069C06DF06AC06EF08EEC1EF06CC040
:102280008AF06DC08BF06EC08CF08BEC19F08AC0B8
:102290008DF18BC08EF18CC08FF18DC196F08EC107
:1022A00097F08FC198F0F7EC27F096C081F197C0B6
:1022B00082F198C083F14BD0000E00016F6F200EA9
:1022C0000001706F410E0001716F6AC168F06BC14F
:1022D00069F066EC27F068C06CF069C06DF06AC008
:1022E0006EF08EEC1EF06CC08AF06DC08BF06EC08C
:1022F0008CF0000E00017E6F000E00017F6F400E1B
:102300000001806F110EF66E060EF76E0900F5CF14
:102310007BF00900F5CF7CF00A00F5CF7DF0E5EC0D
:102320001FF07BC096F07CC097F07DC098F0F7EC72
:1023300027F096C08DF097C08EF098C08FF08BEC90
:1023400019F08AC081F18BC082F18CC083F181C108
:102350009CF182C19DF183C19EF1000E00017E6F50
:10236000000E00017F6F400E0001806F110EF66EAF
:10237000060EF76E0900F5CF7BF00900F5CF7CF073
:102380000A00F5CF7DF0E5EC1FF07BC096F07CC035
:1023900097F07DC098F0F7EC27F096C08DF097C0CD
:1023A0008EF098C08FF0000E00016F6F200E0001BC
:1023B000706F410E0001716F6AC168F06BC169F006
:1023C00066EC27F068C06CF069C06DF06AC06EF012
:1023D0008EEC1EF06CC08AF06DC08BF06EC08CF07D
:1023E0008BEC19F08AC0B1F18BC0B2F18CC0B3F1A3
:1023F000000E0001B66F000E0001B76F400E000125
:10240000B86FB1C1B3F0B2C1B4F0B3C1B5F0B4ECC0
:102410001DF0B3C0B4F1B4C0B5F1B5C0B6F1000E53
:102420000001B66F000E0001B76F400E0001B86FDB
:102430000B0EF66E060EF76E0900F5CFB3F009002D
:10244000F5CFB4F00A00F5CFB5F0B4EC1DF0B3C091
:10245000B7F1B4C0B8F1B5C0B9F1B4C18AF0B5C133
:102460008BF0B6C18CF0B7C18DF0B8C18EF0B9C198
:102470008FF08BEC19F08AC0BAF18BC0BBF18CC025
:10248000BCF1BAC1C4F0BBC1C5F0BCC1C6F0D5EC4B
:102490001CF0C4C09FF1C5C0A0F1C6C0A1F1000EE0
:1024A0003A6E050E3A6401D0D3D13A500A0D060EA9
:1024B000F326000EF422000EF324D96E010EF42050
:1024C000DA6E010EDF6E0101685101016911D8A4B5
:1024D000C3D0000E0001996F000E00019A6F000E2C
:1024E00000019B6F6AC168F06BC169F066EC27F070
:1024F00068C07EF069C07FF06AC080F0FF0E000106
:102500006F6F7F0E0001706F470E0001716F3A50C0
:10251000030D900EF324D96E010EF420DA6EDECF97
:102520006CF0DECF6DF0DDCF6EF08EEC1EF06CC087
:102530007BF06DC07CF06EC07DF0E5EC1FF07BC0E1
:102540009CF07CC09DF07DC09EF032EC24F0000138
:10255000D8A03CD06AC168F06BC169F066EC27F086
:1025600068C07EF069C07FF06AC080F0FF0E000195
:102570006F6F7F0E0001706F470E0001716F3A5050
:10258000030D900EF324D96E010EF420DA6EDECF27
:102590006CF0DECF6DF0DDCF6EF08EEC1EF06CC017
:1025A0007BF06DC07CF06EC07DF0E5EC1FF07BC071
:1025B00096F07CC097F07DC098F0F7EC27F096C0BD
:1025C00084F197C085F198C086F133D0FF0E0001E9
:1025D0006F6F7F0E0001706F470E0001716F3A50F0
:1025E000030D900EF324D96E010EF420DA6EDECFC7
:1025F0006CF0DECF6DF0DDCF6EF08EEC1EF06CC0B7
:102600007BF06DC07CF06EC07DF06AC168F06BC17C
:1026100069F066EC27F068C07EF069C07FF06AC0A0
:1026200080F0E5EC1FF07BC084F17CC085F17DC0BB
:1026300086F13A500A0D030EF326000EF422000E26
:10264000F324D96E010EF420DA6E84C1DEFF85C159
:10265000DEFF86C1DEFFCBD0000E0001996F000EB9
:1026600000019A6F000E00019B6F6AC168F06BC198
:1026700069F066EC27F068C07EF069C07FF06AC040
:1026800080F03A50030D900EF324D96E010EF42021
:10269000DA6EDECF6FF0DECF70F0DDCF71F068C1A3
:1026A00068F069C169F066EC27F068C06CF069C039
:1026B0006DF06AC06EF08EEC1EF06CC07BF06DC0E9
:1026C0007CF06EC07DF0E5EC1FF07BC09CF07CC020
:1026D0009DF07DC09EF032EC24F00001D8A03FD0E8
:1026E0006AC168F06BC169F066EC27F068C07EF0E3
:1026F00069C07FF06AC080F03A50030D900EF32459
:10270000D96E010EF420DA6EDECF6FF0DECF70F0FE
:10271000DDCF71F068C168F069C169F066EC27F03F
:1027200068C06CF069C06DF06AC06EF08EEC1EF08F
:102730006CC07BF06DC07CF06EC07DF0E5EC1FF0EE
:102740007BC096F07CC097F07DC098F0F7EC27F046
:1027500096C087F197C088F198C089F136D03A5079
:10276000030D900EF324D96E010EF420DA6EDECF45
:102770006FF0DECF70F0DDCF71F068C168F069C135
:1027800069F066EC27F068C06CF069C06DF06AC053
:102790006EF08EEC1EF06CC07BF06DC07CF06EC0F5
:1027A0007DF06AC168F06BC169F066EC27F068C023
:1027B0007EF069C07FF06AC080F0E5EC1FF07BC05E
:1027C00087F17CC088F17DC089F13A500A0D030E73
:1027D000F326000EF422000EF324D96E010EF4202D
:1027E000DA6E87C1DEFF88C1DEFF89C1DEFFA2C1CC
:1027F00099F0A3C19AF0A4C19BF03A500A0D030EC0
:10280000F326000EF422000EF324D96E010EF420FC
:10281000DA6EDECF9CF0DECF9DF0DDCF9EF032ECA5
:1028200024F00001D8B012D03A500A0D030EF3265E
:10283000000EF422000EF324D96E010EF420DA6E9D
:10284000DECFA2F1DECFA3F1DDCFA4F13A2A29D663
:1028500000F000F000F0000E3A6E050E3A6401D070
:1028600038D08AC16FF08BC170F08CC171F03A50D2
:102870000A0D030EF326000EF422000EF324D96E87
:10288000010EF420DA6EDECF6CF0DECF6DF0DDCF1E
:102890006EF08EEC1EF06CC07BF06DC07CF06EC0F4
:1028A0007DF0A2C17EF0A3C17FF0A4C180F0E5EC71
:1028B0001FF03A500A0D000EF324D96E010EF420D9
:1028C000DA6E7BC0DEFF7CC0DEFF7DC0DEFF3A2A11
:1028D000C4D700F000F000F0000E0001706F010E90
:1028E0006F6F000E0001726F270E716F07C160F0ED
:1028F00008C161F009C162F08BEC20F060C073F098
:1029000061C074F0BEEC22F0000E0001706F010E89
:102910006F6F000E0001726F280E716F1BC160F0A7
:102920001CC161F01DC162F08BEC20F060C073F03F
:1029300061C074F0BEEC22F0000E0001706F010E59
:102940006F6F000E0001726F290E716F25C160F06C
:1029500026C161F027C162F08BEC20F060C073F0FB
:1029600061C074F0BEEC22F0000E0001706F010E29
:102970006F6F000E0001726F2A0E716F39C160F027
:102980003AC161F03BC162F08BEC20F060C073F0A3
:1029900061C074F0BEEC22F0000E0001706F060EF4
:1029A0006F6F000E0001726F210E716F000E00013B
:1029B000746F000E736F00C160F001C161F002C15D
:1029C00062F08BEC20F0000160510001756F766BB6
:1029D00000C160F001C161F002C162F08BEC20F037
:1029E000000161C060F00001616B000160BF6169BE
:1029F00060C077F061C078F003C160F004C161F09D
:102A000005C162F08BEC20F0000160510001796F8C
:102A10007A6B03C160F004C161F005C162F08BEC18
:102A200020F0000161C060F00001616B000160BF37
:102A3000616960C07BF061C07CF006C17DF000017F
:102A40007E6BBEEC22F0000E0001706F060E6F6F01
:102A5000000E0001726F220E716F000E0001746F84
:102A6000000E736F0AC160F00BC161F00CC162F01F
:102A70008BEC20F0000160510001756F766B0AC18C
:102A800060F00BC161F00CC162F08BEC20F0000132
:102A900061C060F00001616B000160BF616960C0EE
:102AA00077F061C078F00DC160F00EC161F00FC128
:102AB00062F08BEC20F0000160510001796F7A6BBD
:102AC0000DC160F00EC161F00FC162F08BEC20F01F
:102AD000000161C060F00001616B000160BF6169CD
:102AE00060C07BF061C07CF010C17DF000017E6BA6
:102AF000BEEC22F0000E0001706F060E6F6F000E2C
:102B00000001726F230E716F000E0001746F000ED2
:102B1000736F14C160F015C161F016C162F08BECE7
:102B200020F0000160510001756F766B14C160F0F8
:102B300015C161F016C162F08BEC20F0000161C09C
:102B400060F00001616B000160BF616960C077F0F7
:102B500061C078F017C160F018C161F019C162F06E
:102B60008BEC20F0000160510001796F7A6B17C186
:102B700060F018C161F019C162F08BEC20F0000127
:102B800061C060F00001616B000160BF616960C0FD
:102B90007BF061C07CF01AC17DF000017E6BBEEC61
:102BA00022F0000E0001706F060E6F6F000E000124
:102BB000726F240E716F000E0001746F000E736F40
:102BC0001EC160F01FC161F020C162F08BEC20F0EB
:102BD000000160510001756F766B1EC160F01FC16E
:102BE00061F020C162F08BEC20F0000161C060F068
:102BF0000001616B000160BF616960C077F061C076
:102C000078F021C160F022C161F023C162F08BEC49
:102C100020F0000160510001796F7A6B21C160F0F2
:102C200022C161F023C162F08BEC20F0000161C091
:102C300060F00001616B000160BF616960C07BF002
:102C400061C07CF024C17DF000017E6BBEEC22F0FF
:102C5000000E0001706F060E6F6F000E0001726FA4
:102C6000250E716F000E0001746F000E736F28C186
:102C700060F029C161F02AC162F08BEC20F0000104
:102C800060510001756F766B28C160F029C161F059
:102C90002AC162F08BEC20F0000161C060F00001FD
:102CA000616B000160BF616960C077F061C078F05E
:102CB0002BC160F02CC161F02DC162F08BEC20F0D3
:102CC000000160510001796F7A6B2BC160F02CC15B
:102CD00061F02DC162F08BEC20F0000161C060F06A
:102CE0000001616B000160BF616960C07BF061C081
:102CF0007CF02EC17DF000017E6BBEEC22F0000E58
:102D00000001706F060E6F6F000E0001726F260ECD
:102D1000716F000E0001746F000E736F32C160F0AE
:102D200033C161F034C162F08BEC20F000016051DE
:102D30000001756F766B32C160F033C161F034C150
:102D400062F08BEC20F0000161C060F00001616B6B
:102D5000000160BF616960C077F061C078F035C183
:102D600060F036C161F037C162F08BEC20F00001F9
:102D700060510001796F7A6B35C160F036C161F046
:102D800037C162F08BEC20F0000161C060F00001FF
:102D9000616B000160BF616960C07BF061C07CF065
:102DA00038C17DF000017E6BBEEC22F0120066CFD0
:102DB00019F067CF1AF068CF1BF069CF1CF06ACF0B
:102DC0001DF06BCF1EF06CCF1FF06DCF20F065CFE4
:102DD00021F021C03AF00BD03A50010D190EF32426
:102DE000D96E000EF420DA6E000EDF6E3A2A070E5E
:102DF0003A64F2D761CF18F0609EA49030D2308848
:102E00002150D8B412001B50176E166A1A5016249F
:102E100001013C6F000E172001013D6F1D50176E20
:102E2000166A1C50162401013E6F000E1720010186
:102E30003F6F1F50176E166A1E5016240101406F17
:102E4000000E17200101416F3EC109F03FC10AF099
:102E50000FEC28F009C00DF00AC00EF00BC00FF007
:102E600003C110F004C111F005C112F04FEC26F0BF
:102E7000D8A002D0319A1200318A1200308A215033
:102E8000D8B412001B50176E166A1A50162401018E
:102E90003C6F000E172001013D6F1D50176E166A22
:102EA0001C50162401013E6F000E172001013F6FD8
:102EB0001F50176E166A1E5016240101406F000E37
:102EC00017200101416F45C109F046C10AF00FEC1E
:102ED00028F009C00DF00AC00EF00BC00FF00DC1B4
:102EE00010F00EC111F00FC112F04FEC26F0D8A077
:102EF00002D0319C1200318C1200308C2150D8B499
:102F000012001B50176E166A1A50162401013C6FEE
:102F1000000E172001013D6F1D50176E166A1C50E0
:102F2000162401013E6F000E172001013F6F1F5054
:102F3000176E166A1E5016240101406F000E1720EE
:102F40000101416F4CC109F04DC10AF00FEC28F0AE
:102F500009C00DF00AC00EF00BC00FF017C110F041
:102F600018C111F019C112F04FEC26F0D8A002D010
:102F7000319E1200318E1200308E2150D8B41200D2
:102F80001B50176E166A1A50162401013C6F000E72
:102F9000172001013D6F1D50176E166A1C50162434
:102FA00001013E6F000E172001013F6F1F50176E89
:102FB000166A1E5016240101406F000E17200101F1
:102FC000416F53C109F054C10AF00FEC28F009C059
:102FD0000DF00AC00EF00BC00FF021C110F022C19D
:102FE00011F023C112F04FEC26F0D8A002D032909D
:102FF00012003280120031802150D8B412001B50D0
:10300000176E166A1A50162401013C6F000E172025
:1030100001013D6F1D50176E166A1C5016240101E8
:103020003E6F000E172001013F6F1F50176E166A8A
:103030001E5016240101406F000E17200101416F40
:103040005AC109F05BC10AF00FEC28F009C00DF07D
:103050000AC00EF00BC00FF02BC110F02CC111F004
:103060002DC112F04FEC26F0D8A002D032921200FF
:103070003282120031822150D8B412001B50176ED8
:10308000166A1A50162401013C6F000E1720010128
:103090003D6F1D50176E166A1C50162401013E6FBD
:1030A000000E172001013F6F1F50176E166A1E5049
:1030B00016240101406F000E17200101416F61C10C
:1030C00009F062C10AF00FEC28F009C00DF00AC047
:1030D0000EF00BC00FF035C110F036C111F037C142
:1030E00012F04FEC26F0D8A002D0329412003284B5
:1030F000120033802150D8B4120019C042F10101EE
:10310000425121EC28F009C00DF00AC00EF00BC0AE
:103110000FF007C110F008C111F009C112F04FEC17
:1031200026F0D8A002D032961200328612003382E6
:103130002150D8B4120019C050F10101505121ECB6
:1031400028F009C00DF00AC00EF00BC00FF01BC133
:1031500010F01CC111F01DC112F04FEC26F0D8A0E8
:1031600002D0329812003288120033842150D8B431
:10317000120019C057F10101575121EC28F009C084
:103180000DF00AC00EF00BC00FF025C110F026C1E3
:1031900011F027C112F04FEC26F0D8A002D0329ADD
:1031A0001200328A120033862150D8B4120019C09E
:1031B00065F10101655121EC28F009C00DF00AC04C
:1031C0000EF00BC00FF039C110F03AC111F03BC145
:1031D00012F04FEC26F0D8A002D0329C1200328CB4
:1031E000120034802150D8B4120019C03DF03D5077
:1031F0003F18D8A402D0329E1200328E12003084C2
:103200002150D8B4120019C037F01AC038F0375026
:103210003518D8A402D0319401D0318438503618F2
:10322000D8A402D03196120031861200338A1200DF
:1032300030802150D8B4120019C03EF01200308600
:103240002150D8B4120019C03CF03C50D8A405D08D
:103250003904D8A402D031981200318812001850D5
:10326000010AD8B41200030AD8B41200010AD8B473
:103270001200070AD8B41200010AD8B41200030AD7
:10328000D8B41200010AD8B412000F0AD8B4120040
:10329000010AD8B41200030AD8B41200010AD8B443
:1032A0001200070AD8B41200010AD8B41200030AA7
:1032B000D8B41200010AD8B412004E0AD8B49FD56F
:1032C000030AD8B4DBD5010AD8B417D6070AD8B494
:1032D00053D6010AD8B48FD6030AD8B4CBD6010A84
:1032E000D8B407D70F0AD8B422D7010AD8B43DD72B
:1032F000030AD8B458D7010AD8B473D7070AD8B488
:103300007ED7010AD8B492D7030AD8B491D7010A5C
:10331000D8A4120094D78CC090F00001916B926BEE
:1033200000018B350001903701E39181000190513C
:103330000001956F8FC090F00001916B926B0001BE
:103340008E350001903701E3918100019051000119
:10335000946F000195510001D8B411D0000194512F
:103360000001955DD8B012D0000195510008000110
:1033700094250001906F180E0001906507D08DC054
:103380008AF08EC08BF08FC08CF012000001945137
:103390000001D8B411D0000195510001945DD8B05E
:1033A00012D0000194510008000195250001906F92
:1033B000180E0001906507D08AC08AF08BC08BF090
:1033C0008CC08CF01200060E0001936F00018CAFD0
:1033D00002D00001938F00018FAF02D00001938DC6
:1033E00000018B8FFF0E00018A17FF0E00018B1763
:1033F000000E00018C1700018E8FFF0E00018D174B
:10340000FF0E00018E17000E00018F17000194516E
:103410000001955DD8B025D00001D8908D378E374A
:103420008F37000194070001955100019419D8B419
:1034300011D00001930793C090F0070E0001901780
:10344000D8B408D0E9D70001D8908C338B338A33B5
:103450000001952B0001945100019519D8B42BD08F
:10346000F2D7000195510001945DD8B024D000013D
:10347000D8908A378B378C3700019507000195511A
:1034800000019419D8B411D00001930793C090F0B3
:10349000070E00019017D8B408D0E9D70001D890E2
:1034A0008F338E338D330001942B00019451000132
:1034B0009519D8A4F3D7000193AF12D0FF0E0001E5
:1034C0008A1BFF0E00018B1BFF0E00018C1B010EDF
:1034D00000018A27000E00018B23000E00018C23BF
:1034E000000193AD12D0FF0E00018D1BFF0E0001F5
:1034F0008E1BFF0E00018F1B010E00018D27000E99
:1035000000018E23000E00018F23000E0001936F37
:1035100000018A5100018D2700018B5100018E238B
:1035200000018C5100018F2300018FAF15D0FF0ED9
:1035300000018D1BFF0E00018E1BFF0E00018F1B73
:10354000010E00018D27000E00018E23000E0001E8
:103550008F23010E0001936F8DC060F08EC061F06B
:103560008FC062F095C063F093C064F0B9EC21F0B5
:1035700060C08AF061C08BF062C08CF01200000164
:10358000AA510001AB110001AC11D8A40AD0000E61
:103590000001AA6F800E0001AB6F3F0E0001AC6FFF
:1035A0001200720E0001996F310E00019A6F440EE5
:1035B00000019B6FAAC09CF0ABC09DF0ACC09EF018
:1035C00032EC24F00001D8B00FD0000E0001EB6FF8
:1035D000220EEA6FFF0E0001AA6F7F0E0001AB6F93
:1035E0007F0E0001AC6F1200AAC099F0ABC09AF038
:1035F000ACC09BF0490E00019C6F3A0E00019D6F1C
:10360000C40E00019E6F32EC24F00001D8B00FD040
:10361000000E0001EB6F220EEA6F000E0001AA6F90
:10362000000E0001AB6F000E0001AC6F1200000134
:10363000ACAF02D0010E01D0000E0001B26F00014C
:10364000B2510001D8B40ED0AAC096F0ABC097F02A
:10365000ACC098F0F7EC27F096C0AAF097C0ABF09A
:1036600098C0ACF0AAC06CF0ABC06DF0ACC06EF00E
:10367000AA0E00016F6FB80E0001706F3F0E0001BF
:10368000716F8EEC1EF06CC0AAF06DC0ABF06EC016
:10369000ACF0AAC0A2F0ABC0A3F0ACC0A4F03FEC69
:1036A00022F0A2C0ADF0A3C0AEF0A4C0AFF0ADC098
:1036B00060F0AEC061F0AFC062F08BEC20F060C093
:1036C000B0F061C0B1F0AAC096F0ABC097F0ACC04A
:1036D00098F0B0C068F0B1C069F066EC27F068C03F
:1036E00099F069C09AF06AC09BF040EC27F096C050
:1036F000AAF097C0ABF098C0ACF0AAC096F0ABC0EF
:1037000097F0ACC098F01A0E0001996F060E0001F8
:103710009A6F000E00019C6F090E9B6FBCEC23F0AA
:1037200096C0A2F097C0A3F098C0A4F0B0C0A5F0D6
:10373000B1C0A6F02DEC21F0A2C0AAF0A3C0ABF05E
:10374000A4C0ACF00001B2510001D8B42ED00001E9
:10375000AA2913E17F0E0001AB190FE17F0E0001D2
:10376000AC19D8A40AD0000E0001AA6F000E000107
:10377000AB6F000E0001AC6F1200000E00017B6FFA
:10378000800E00017C6F3F0E00017D6FAAC07EF0AD
:10379000ABC07FF0ACC080F0E5EC1FF07BC0AAF0BE
:1037A0007CC0ABF07DC0ACF01200AAC0AAF0ABC0E8
:1037B000ABF0ACC0ACF01200A2C099F0A3C09AF07C
:1037C000A4C09BF0DEEC27F099C0AFF09AC0B0F037
:1037D0009BC0B1F00001AF510001B0110001B11167
:1037E000D8A40AD0000E0001A26F000E0001A36F42
:1037F000000E0001A46F1200000E0001996F800EF0
:1038000000019A6F3F0E00019B6FAFC09CF0B0C0EB
:103810009DF0B1C09EF032EC24F00001D8B002D08F
:10382000010E01D0000E0001AB6F0001AB51D8B406
:1038300017D0000E00017B6F800E00017C6F3F0EE1
:1038400000017D6FAFC07EF0B0C07FF0B1C080F0EE
:10385000E5EC1FF07BC0AFF07CC0B0F07DC0B1F0F4
:10386000AFC06CF0B0C06DF0B1C06EF0AFC06FF023
:10387000B0C070F0B1C071F08EEC1EF06CC0ACF056
:103880006DC0ADF06EC0AEF0ACC096F0ADC097F0BC
:10389000AEC098F0650E0001996F060E00019A6F98
:1038A000000E00019C6F040E9B6FBCEC23F096C0D1
:1038B000A5F097C0A6F098C0A7F0ACC096F0ADC038
:1038C00097F0AEC098F0530E0001996F060E0001FC
:1038D0009A6F000E00019C6F050E9B6FBCEC23F0ED
:1038E00096C0A8F097C0A9F098C0AAF0AFC06CF03D
:1038F000B0C06DF0B1C06EF0A5C07EF0A6C07FF084
:10390000A7C080F0A8C07BF0A9C07CF0AAC07DF061
:10391000E5EC1FF07BC06FF07CC070F07DC071F0F3
:103920008EEC1EF06CC0AFF06DC0B0F06EC0B1F0A8
:103930000001AB510001D8B41FD0AFC096F0B0C0A9
:1039400097F0B1C098F0F7EC27F096C08AF097C0D6
:103950008BF098C08CF0100E00018D6FC90E000125
:103960008E6F3F0E00018F6F8BEC19F08AC0AFF0A5
:103970008BC0B0F08CC0B1F00001A4BF07D0AFC0C5
:10398000A2F0B0C0A3F0B1C0A4F01200AFC096F096
:10399000B0C097F0B1C098F0F7EC27F096C0A2F055
:1039A00097C0A3F098C0A4F01200000E0001996F18
:1039B000000E00019A6F000E00019B6FC4C09CF0C6
:1039C000C5C09DF0C6C09EF032EC24F00001D8A026
:1039D00012D00001C6AF05D0000E0001EB6F210E22
:1039E000EA6F000E0001C46F000E0001C56F000EEB
:1039F0000001C66F1200C4C0CDF0C5C0CEF0C6C075
:103A0000CFF0C4C0C7F0C5C0C8F0C6C0C9F000013F
:103A1000C71FC81FC91FC72B000EC823C923C80E44
:103A20000001C7250001D46F6E0E0001C8210001FE
:103A3000D56FBE0E0001C9210001D66F0001D890DC
:103A4000D633D533D433000E0001CD5F800E000194
:103A5000CE5B000E0001CF5B040E0001D06FD4C01E
:103A6000CAF0D5C0CBF0D6C0CCF0D4C06CF0D5C075
:103A70006DF0D6C06EF0CDC06FF0CEC070F0CFC08C
:103A800071F08EEC1EF06CC0D1F06DC0D2F06EC043
:103A9000D3F0D1C06CF0D2C06DF0D3C06EF0D4C002
:103AA0006FF0D5C070F0D6C071F08EEC1EF06CC017
:103AB000D1F06DC0D2F06EC0D3F0D1C06CF0D2C0E6
:103AC0006DF0D3C06EF0D4C06FF0D5C070F0D6C02A
:103AD00071F08EEC1EF06CC0D1F06DC0D2F06EC0F3
:103AE000D3F0D4C06CF0D5C06DF0D6C06EF0000E2F
:103AF00000016F6FC00E0001706F3F0E0001716F0B
:103B00008EEC1EF06CC0D4F06DC0D5F06EC0D6F057
:103B1000D4C096F0D5C097F0D6C098F0D1C099F037
:103B2000D2C09AF0D3C09BF040EC27F096C0D4F0FE
:103B300097C0D5F098C0D6F00001D02F90D7D4C050
:103B40006CF0D5C06DF0D6C06EF0C4C06FF0C5C0CB
:103B500070F0C6C071F08EEC1EF06CC0C4F06DC089
:103B6000C5F06EC0C6F01200000E0001BF6F00016C
:103B7000B3510001B4110001B511D8A423D0000E37
:103B80000001996F000E00019A6F000E00019B6FFB
:103B9000B6C09CF0B7C09DF0B8C09EF032EC24F0E7
:103BA0000001D8A005D0000E0001EB6F210EEA6FD6
:103BB000000E0001B36F000E0001B46F000E000193
:103BC000B56F12000001B6510001B7110001B81124
:103BD000D8A40AD0000E0001B36F800E0001B46FAC
:103BE0003F0E0001B56F12000001B5AF4CD0B6C05A
:103BF00060F0B7C061F0B8C062F08BEC20F060C03C
:103C0000C0F061C0C1F062C0C2F063C0C3F0C0C008
:103C100068F0C1C069F0C2C06AF0C3C06BF0D6ECF6
:103C200026F00001B651000168190BE10001B751FF
:103C30000001691906E10001B85100016A19D8B400
:103C40000FD0000E0001EB6F210EEA6F000E000195
:103C5000B36F000E0001B46F000E0001B56F1200CB
:103C60000001C051010B0001BF6FB3C096F0B4C09A
:103C700097F0B5C098F0F7EC27F096C0B3F097C076
:103C8000B4F098C0B5F0B3C0A2F0B4C0A3F0B5C012
:103C9000A4F03DEC1FF0A2C0B9F0A3C0BAF0A4C0DC
:103CA000BBF0B9C06CF0BAC06DF0BBC06EF0B6C06E
:103CB0006FF0B7C070F0B8C071F08EEC1EF06CC041
:103CC000BCF06DC0BDF06EC0BEF0BCC0AAF0BDC0FF
:103CD000ABF0BEC0ACF0BFEC1AF0AAC0B3F0ABC002
:103CE000B4F0ACC0B5F00001BF510001D8B40FD0A2
:103CF000B3C096F0B4C097F0B5C098F0F7EC27F0D9
:103D000096C0B3F097C0B4F098C0B5F01200B3C03D
:103D1000B3F0B4C0B4F0B5C0B5F012006EC072F02C
:103D20000001736B746B00016D350001723701E3A4
:103D30007381000172510001756F00017551D8A4A3
:103D40000AD0000E00016C6F000E00016D6F000EB6
:103D500000016E6F120071C072F00001736B746B22
:103D6000000170350001723701E373810001725167
:103D700000017A6F00017A51D8A40AD0000E000128
:103D80006C6F000E00016D6F000E00016E6F12006F
:103D900000017A517B0F000175276EC07AF0000197
:103DA000715100017A1B800E00017A1700016D8F9E
:103DB0000001708FFF0E00016F17FF0E00017017DA
:103DC000000E00017117000E0001766F000E000159
:103DD000776F000E0001786F070E0001796F000108
:103DE0006CA10CD000016F510001762700017051C9
:103DF0000001772300017151000178230001D89060
:103E00006E336D336C330001D8906F377037713774
:103E10000001792FE4D7090E0001796F00016CA130
:103E20000CD000016F510001762700017051000194
:103E3000772300017151000178230001D8906E337F
:103E40006D336C330001D8907833773376330001CB
:103E5000792FE4D776C060F077C061F078C062F067
:103E600075C063F07AC064F0B9EC21F060C06CF00A
:103E700061C06DF062C06EF012000001A4AF0FD0FF
:103E8000000E0001EB6F210EEA6F000E0001A26F21
:103E9000000E0001A36F000E0001A46F12000001CC
:103EA000A2510001A3110001A411D8A40FD0000E4B
:103EB0000001EB6F220EEA6F000E0001A26F000EF0
:103EC0000001A36F000E0001A46F1200000E00019C
:103ED0006F6F000E0001706F400E0001716FA50E34
:103EE0000001636F000E0001646FA2C060F0A3C008
:103EF00061F0A4C062F052EC25F060C06CF061C0CB
:103F00006DF062C06EF08EEC1EF06CC08AF06DC079
:103F10008BF06EC08CF0000E00018D6F800E0001E2
:103F20008E6FBF0E00018F6F8BEC19F08AC0A2F06C
:103F30008BC0A3F08CC0A4F00001A507D8A0A607F1
:103F4000A2C096F0A3C097F0A4C098F0380E00016C
:103F5000996F060E00019A6F000E00019C6F080E0B
:103F60009B6FBCEC23F096C0A2F097C0A3F098C062
:103F7000A4F0720E00016F6F310E0001706F3F0EE2
:103F80000001716FA5C068F0A6C069F066EC27F06B
:103F900068C06CF069C06DF06AC06EF08EEC1EF007
:103FA0006CC08AF06DC08BF06EC08CF0A2C08DF03A
:103FB000A3C08EF0A4C08FF08BEC19F08AC0A2F0E1
:103FC0008BC0A3F08CC0A4F012007DC081F0000172
:103FD000826B836B00017C350001813701E38281B4
:103FE000000181510001886F00018851D8A40AD0D6
:103FF000000E00017B6F000E00017C6F000E0001BF
:104000007D6F120080C081F00001826B836B000124
:104010007F350001813701E3828100018151000178
:10402000896F00018951D8A40AD0000E00017B6F6E
:10403000000E00017C6F000E00017D6F1200000E6B
:104040000001856F000E0001866F000E0001876F72
:1040500000018951890F0001885F7DC089F000014E
:1040600080510001891B800E0001891700017C8F9F
:10407000FF0E00017B17FF0E00017C17000E0001F0
:104080007D1700017F8FFF0E00017E17FF0E0001DC
:104090007F17000E00018017180E0001846F0001C9
:1040A000D89085378637873700017E5100017B5DC8
:1040B00000017F5100017C590001805100017D59B0
:1040C000D8A00ED000017E5100017B5F00017F511E
:1040D00000017C5B0001805100017D5B0001858156
:1040E0000001D8907B377C377D370001842FD7D7EC
:1040F00085C060F086C061F087C062F088C063F060
:1041000089C064F0B9EC21F060C07BF061C07CF044
:1041100062C07DF0120062C064F00001656B666BE6
:10412000000161350001643701E3658100016451DC
:1041300000016E6F00016E51D8A40AD0000E00017C
:10414000606F000E616F000E626F000E636F1200F1
:10415000170E0001646F60C065F061C066F062C058
:1041600067F0000164290001686F05D00001D89054
:104170006733663365330001682FF8D70001655156
:104180000001696F0001618FFF0E00016017FF0ED3
:1041900000016117000E000162170001605100016B
:1041A0006A6F0001615100016B6F000162510001F3
:1041B0006C6F00016D6B8E0E00016E5F00016EAFC3
:1041C0001AD000016E51800A8F0FD8B00AD0000EAD
:1041D0000001606F000E616F000E626F000E636F72
:1041E00012000001D8906D336C336B336A330001D9
:1041F0006E3FF7D71BD0170E00016E6512D0000E70
:104200000001606F000E616F000E626F000E636F41
:1042100012000001D8906A376B376C376D37000198
:104220006E0700016E510001D8A4F3D70001695157
:104230000001D8B409D000016D1F6C1F6B1F6A6D9F
:10424000000E6B236C236D236AC060F06BC061F0BD
:104250006CC062F06DC063F012000001A251000159
:10426000A3110001A411D8A40AD0000E0001A26F6E
:10427000000E0001A36F000E0001A46F12000001E8
:10428000A4517F0B0001A76FA86BD8900001A7373E
:10429000A8370001A7510001A5270001A85100017E
:1042A000A6230001A3AF04D00001A76BA72B02D067
:1042B0000001A76B0001A7510001A527000EA6234E
:1042C0000001A6AF0FD0000E0001EB6F220EEA6FC7
:1042D000000E0001A26F000E0001A36F000E00018E
:1042E000A46F12000001A6BF1CD00001A605D8A033
:1042F00018D0000E0001EB6F220EEA6F0001A4AF90
:1043000008D0FF0E0001A26F7F0E0001A36FFF0E09
:10431000E6D7FF0E0001A26F7F0E0001A36F7F0E94
:10432000DED70001A635A6310001A86F0001A53136
:104330000001A76F0001A4510001A719800BA71964
:104340000001A46FA5C0A7F0010E0001A71700018E
:10435000A733A7330001A3510001A7197F0BA719A9
:104360000001A36FA2C0A2F0A3C0A3F0A4C0A4F058
:104370001200000163510001D8B408D0000160515F
:104380000001611100016211D8A411D0000E0001DA
:10439000606F000E0001616F000E0001626F12007D
:1043A0000001632B0001D890623361336033000E4B
:1043B000000160150001656F000E0001611500012C
:1043C000666FFE0E000162150001676F0001655106
:1043D0000001661100016711D8B411D0E1D70001C6
:1043E000632B010E00016027000E00016123000E07
:1043F000000162230001D890623361336033000E04
:10440000000160150001656F000E000161150001DB
:10441000666FFF0E000162150001676F00016551B4
:104420000001661100016711D8B408D0D8D7000187
:1044300063070001D890603761376237000161BFC0
:1044400004D0020E00016361F2D7000163B102D013
:104450000001619F0001D8906333000163510001A6
:104460006213000164510001D8B402D00001628FD0
:1044700060C060F061C061F062C062F01200A2C072
:1044800060F0A3C061F0A4C062F0A80E0001636FE9
:10449000000E0001646F52EC25F00001A9AF17D0A7
:1044A0000001A4AF0AD0000E0001A26F800E00012F
:1044B000A36FBF0E0001A46F1200000E0001A26FD7
:1044C000000E0001A36F000E0001A46F1200000196
:1044D000A95105E1150E0001A85DD8A007D0A2C022
:1044E000A2F0A3C0A3F0A4C0A4F01200A2C060F088
:1044F000A3C061F0A4C062F08BEC20F060C06FF04C
:1045000061C070F062C071F063C072F000EC26F020
:104510006FC0A5F070C0A6F071C0A7F0A2C099F05E
:10452000A3C09AF0A4C09BF0A5C09CF0A6C09DF0CB
:10453000A7C09EF032EC24F00001D8B018D0A5C07E
:104540008AF0A6C08BF0A7C08CF0000E00018D6F22
:10455000800E00018E6FBF0E00018F6F8BEC19F083
:104560008AC0A2F08BC0A3F08CC0A4F01200A5C03A
:10457000A2F0A6C0A3F0A7C0A4F0120000016F4BE8
:10458000702B0F0140B7FDD7710E00017F6F000E39
:104590000001806F00016F050F01456F7FC0D9FFDB
:1045A00080C0DAFFDF500F01416F020E00017F274C
:1045B000000E80237FC0D9FF80C0DAFFDF500F01DB
:1045C000466F020E00017F27000E80237FC0D9FFB7
:1045D00080C0DAFFDF500F01476F020E00017F2716
:1045E000000E80237FC0D9FF80C0DAFFDF500F01AB
:1045F000486F020E00017F27000E80237FC0D9FF85
:1046000080C0DAFFDF500F01496F020E00017F27E3
:10461000000E80237FC0D9FF80C0DAFFDF500F017A
:104620004A6F020E00017F27000E80237FC0D9FF52
:1046300080C0DAFFDF500F014B6F020E00017F27B1
:10464000000E80237FC0D9FF80C0DAFFDF500F014A
:104650004C6F020E00017F27000E80237FC0D9FF20
:1046600080C0DAFFDF500F014D6F020E00017F277F
:10467000000E80230F0140871200640E0001616F5D
:10468000520EAD6E9EA8FED7580EAD6E9EA8FED7F8
:104690000001DB51D00F0A0DF3CF60F00001DA51B9
:1046A000D00F640DF350000160250001DC25D00F10
:1046B0000001646F0001DF51D00F0A0DF3CF60F0ED
:1046C0000001DE51D00F640DF350000160250001A0
:1046D000E025D00F0001636F0001E351D00F0A0DF8
:1046E000F3CF60F00001E251D00F640DF3500001F0
:1046F00060250001E425D00F0001626F26D03388C9
:1047000064C06AF101016B6B63C068F10101696B00
:1047100062C066F10101676B26D0308264C0F0F0A0
:1047200063C0EDF020D0338E020E00016419D8A4CE
:1047300002D0010E01D0000E0001EC6F64C0EEF05B
:1047400063C0EFF062C0F1F00ED00001D851430A0F
:10475000D8B4E3D7110AD8B4D2D7010AD8B403D059
:10476000070AD8B4E0D7000E3B6E000E0001D76FE9
:10477000000E0001E96F12009BC060F09CC061F068
:10478000000E0001636F030E626FC3EC27F099C047
:104790009DF09AC09EF00001605100019D2700012C
:1047A000615100019E239DC0F6FF9EC0F7FF0900E6
:1047B000F5CF9FF00900F5CFA0F00A00F5CFA1F0EA
:1047C00044D09FC06FF0A0C070F0A1C071F096C03F
:1047D0006CF097C06DF098C06EF08EEC1EF06CC05F
:1047E0008AF06DC08BF06EC08CF0000E0001636F1C
:1047F000030E626F00019B07D8A09C079BC060F06E
:104800009CC061F0C3EC27F099C09DF09AC09EF067
:104810000001605100019D270001615100019E23AC
:104820009DC0F6FF9EC0F7FF0900F5CF8DF009008F
:10483000F5CF8EF00A00F5CF8FF08BEC19F08AC01F
:104840009FF08BC0A0F08CC0A1F000019B51000133
:104850009C11D8A4B6D79FC096F0A0C097F0A1C075
:1048600098F0120000019BAF1DD099C09FF09AC034
:10487000A0F09BC0A1F000019F1FA01FA11F9F2BB4
:10488000000EA023A123000E00019F250001996FB7
:10489000000E0001A02100019A6F800E0001A121ED
:1048A00000019B6F00019EAF1DD09CC09FF09DC07A
:1048B000A0F09EC0A1F000019F1FA01FA11F9F2B71
:1048C000000EA023A123000E00019F2500019C6F74
:1048D000000E0001A02100019D6F800E0001A121AA
:1048E00000019E6F000E0001991B000E00019A1B33
:1048F000800E00019B1B000E00019C1B000E00019E
:104900009D1B800E00019E1B00019C510001995DC2
:1049100000019D5100019A5900019E5100019B59CF
:10492000D8B002D0D8901200D88012000600E9CF8B
:1049300024F0EACF25F0E1CF26F0E2CF27F0D9CF5F
:1049400028F0DACF29F0F3CF2AF0F4CF2BF0F6CF0E
:104950002CF0F7CF2DF0F8CF2EF0F5CF2FF0A4B03C
:10496000A3A003D0A490D7EC16F09DBA9EAA24D0A1
:104970009E9A3B50010DD70EF324D96E000EF42001
:10498000DA6EAECFDFFF400E0001D719D8A414D0E5
:10499000120E3B6002D03B2A0FD0240E0001E91911
:1049A000D8A402D0338C08D0000E3B6E000E00015C
:1049B000D76F000E0001E96F2FC0F5FF2EC0F8FF82
:1049C0002DC0F7FF2CC0F6FF2BC0F4FF2AC0F3FF69
:1049D00029C0DAFF28C0D9FF27C0E2FF26C0E1FFC7
:1049E00025C0EAFF24C0E9FF23C0FBFF22C0FAFF75
:1049F000409211000001EC05D8A402D0328E1200C2
:104A00003950D8A412003C50D8A412000A0E3F1806
:104A1000D8A413D03188010E396E000E0001706FDA
:104A2000010E6F6F000E0001726F2F0E716F39C093
:104A300073F00001746BBEEC22F00001EE51D8A4BB
:104A400004D0328E080E3F6E12000001EE05D8A48D
:104A500012003950D8A412003C50D8A41200000112
:104A6000EC51D8A41200328EEFC081F0010E00018B
:104A700081170001813BF00E8117F1C082F0010E19
:104A800000018217050E0001836F0001D890823764
:104A90000001832FFAD70001825100018125070F01
:104AA0003F6E1200000160510001611100016211AE
:104AB000D8A412D063C0D9FF64C0DAFF000EDE6E46
:104AC000000EDD6E000E0001606F000E0001616FD0
:104AD000000E0001626F1200000162517F0B0001A5
:104AE000656F666BD89000016537663763C0D9FF84
:104AF00064C0DAFF65C0DEFF66C0DDFF000161AFA4
:104B000004D00001656B652B02D00001656B0001CC
:104B1000655163C0D9FF64C0DAFFDE12000EDD12FA
:104B200063C0D9FF64C0DAFF820EDE26FF0EDD22ED
:104B3000000162816283628562876289628B629D05
:104B40000001619F60C060F061C061F062C062F00E
:104B500012000450D8B405D0015002100310D8A49C
:104B60000CD0000E016E000E026E000E036E1200DD
:104B7000042AD890033202320132000E0114066E6C
:104B8000000E0214076EFE0E0314086E0650071086
:104B90000810D8B40CD0ECD7042A010E0126000E60
:104BA0000222000E0322D890033202320132000E9C
:104BB0000114066E000E0214076EFF0E0314086E39
:104BC000065007100810D8B406D0E6D70406D890CF
:104BD00001360236033602BE03D0020E0460F6D759
:104BE00004A0029ED8900432045003120550D8A4A9
:104BF000038E01C001F002C002F003C003F01200F6
:104C0000000E0001786F8E0E0001776F000172AF09
:104C100015D00001721F711F701F6F6D000E702381
:104C200071237223010E0001786F08D00001D89023
:104C30007233713370336F330001772B000E000134
:104C40006F150001736F000E000170150001746F85
:104C5000000E000171150001756FFF0E0001721545
:104C60000001766F0001735100017411000175118C
:104C700000017611D8A4DAD76FC060F070C061F07F
:104C800071C062F077C063F078C064F0B9EC21F0D5
:104C900060C06FF061C070F062C071F012000FAEC2
:104CA00016D00DC013F00EC014F00FC015F0131E77
:104CB000141E151E132A000E14221522000E132492
:104CC0000D6E000E14200E6E800E15200F6E12AEAB
:104CD00016D010C013F011C014F012C015F0131E3E
:104CE000141E151E132A000E14221522000E132462
:104CF000106E000E1420116E800E1520126E000E24
:104D00000D1A000E0E1A800E0F1A000E101A000E49
:104D1000111A800E121A10500D5C11500E581250BC
:104D20000F58D8B002D0D8901200D88012004BECA7
:104D300028F014EC27F033EC28F0F28CF28E000E01
:104D40000001706F000E6F6F000E0001726F300E69
:104D5000716FBEEC22F033AC04D0339C3DEC23F0F9
:104D6000FAD733A804D0339851EC03F0F4D730A22B
:104D700004D03092A6EC27F0EED733BE32BEEBD78C
:104D800031B8E9D7339EFAEC24F0000E0001706FC1
:104D9000010E6F6F000E0001726F2B0E716F3FC01E
:104DA00073F00001746BBEEC22F0D5D78E0E0001BB
:104DB000706F08D00001D8906B336A336933683361
:104DC0000001702B000E0001681500016C6F000ED1
:104DD0000001691500016D6F000E00016A150001E8
:104DE0006E6FFF0E00016B1500016F6F00016C51BB
:104DF00000016D1100016E1100016F11D8A4DAD706
:104E000068C060F069C061F06AC062F070C063F0B1
:104E1000000E0001646FB9EC21F060C068F061C061
:104E200069F062C06AF0120054EC28F0030E706E54
:104E3000980E716E030E726E000E0F01196F000E48
:104E40000F011D6F000E626E000E0F01016F000E4C
:104E50000F01056F000E0F01096F000E0F01426F69
:104E60000F011869400E0F01006F000E0F01046F53
:104E7000260E606E200E736EA38041EC28F01200A7
:104E80000001995100019A1100019B11D8B409D079
:104E9000000E0001991B000E00019A1B800E0001FC
:104EA0009B1B96C08AF097C08BF098C08CF099C07D
:104EB0008DF09AC08EF09BC08FF08BEC19F08AC0F9
:104EC00096F08BC097F08CC098F01200000E000195
:104ED0006B6F000169AF08D00001686D691FD8B021
:104EE000692B010E00016B6F68C060F069C061F052
:104EF0000001626B8E0E0001636F6BC064F0B9EC51
:104F000021F060C068F061C069F062C06AF0120010
:104F100001EE00F06C0EEE6AE806FDE100EED7F05F
:104F20001B0EEE6AE806FDE1346A336A326A316AC2
:104F3000306A00EE35F00B0EEE6AE806FDE14090B7
:104F40004092000EF86E000197EF26F00001F0513C
:104F5000A60F356E0001ED51C40F366E000E000134
:104F6000706F020E6F6F000E0001726F2C0E716F6A
:104F700035C073F00001746B36C075F00001766BBC
:104F8000BEEC22F012000001605100016203F3CF79
:104F900064F0F4CF65F00001605100016303F35049
:104FA000000165270001615100016203F350000117
:104FB000652764C060F065C061F0120000019BAF1E
:104FC0000FD099C096F09AC097F09BC098F0F7EC7C
:104FD00027F096C099F097C09AF098C09BF0120005
:104FE00099C099F09AC09AF09BC09BF01200000102
:104FF00096510001971100019811D8B409D0000E04
:105000000001961B000E0001971B800E0001981BEB
:1050100096C096F097C097F098C098F0120009C01B
:1050200001F00AC002F0036A8E0E046E000E056ED7
:10503000A9EC25F001C009F002C00AF003C00BF092
:1050400012000C6E0C50016E026A036A8E0E046E22
:10505000000E056EA9EC25F001C009F002C00AF0AF
:1050600003C00BF01200000EB06EB8960C0EAF6EBF
:10507000AB8EAC94020EAC6E900EAB6EAC8A9D8A79
:105080001200100E6F6E6ECF60F0E00E0001601720
:10509000D8B41200F8D7700ED36E0F0EC16EFB0E8F
:1050A000936EBF0E946E1200900E6F6E6E50E00BFA
:0850B000800AD8B41200FAD7FF
:020000040030CA
:04000000FF091E00D6
:0200060001FFF8
:00000001FF
